:020000040000FA
:1000000000008231522A00348A01200011112000A0
:1000100029080F3A031918282000AD0A2D1C1428AE
:10002000053022008C001A28123022008C001A2879
:1000300022008C0120002B082000AE072000031CAA
:100040002E282000AA032A08031D2E2822008C0136
:1000500021001111200018102000AC0109007A3095
:100060002100990020008C0122008C0123008C01CA
:10007000E83021008C00803022009D0020302000DC
:1000800098000B302500930020000B178B1782314E
:10009000432280312000AE01033020002E020318DD
:1000A00057288131472180312000AE0A4C2800308A
:1000B0009D208131472180312000400820003F06EB
:1000C00003199B2830303F02031C952834303F022F
:1000D00003189528D0303F072000A80000308A0080
:1000E0007530280703188A0A8200792882288D280B
:1000F000912822008C012000400803199728023023
:100100009D20972820004008303A031D892801309F
:100110009D20143022008C009728053022008C008E
:100120009728123022008C00972822008C01200092
:100130003F082000C000592808002000A00003301C
:10014000A2005D30A1008030A3002008013A031D09
:10015000AF280330A2002730A1008030A300200088
:100160002008023A031DBA280330A2004230A10041
:100170008030A30020002108FE002208FF00230891
:100180008231D22280312000A000FF3A0319462993
:1001900020082000A9002000A10A0319A20A0319BF
:1001A000A30A2108FE002208FF0023088231D22280
:1001B00080312000AA002000A10A0319A20A031915
:1001C000A30A20002908743E2000A0000330031871
:1001D000013EA4002008FE002408FF008030823188
:1001E000D22280312500920020002908843E200080
:1001F000A00003300318013EA4002008FE002408DC
:10020000FF0080308231D222813125009100200010
:100210002908743E2000A00003300318013EA4000A
:100220002008FE002408FF0080308231D222813174
:100230002000A500250EF039A00020002908843EEA
:100240002000A50003300318013EA6002508FE008B
:100250002608FF0080308231D22281312000A700A1
:10026000270E0F39A50020072000AB000130200029
:10027000AC000B302500930021001115200018144C
:10028000003020002C040319BA284029080000304F
:1002900020003F04031D56295A302000C3000030BF
:1002A000200043040319562949224F2949222000DE
:1002B000970196012500930120008C1A5C292000EB
:1002C000BB0120008C1E66292000BB0A20003B08D1
:1002D000BC00013A031D5F292000181420008C1A6D
:1002E0006E29181017082000BE00BB00BC01BD011C
:1002F000200016082000BB00BC010030BB043E08F3
:10030000BC0402303C02031D872958303B02031C09
:100310009229093020003C02031D9029C5303B0280
:10032000031C9329422A2000411DA52905302000E5
:100330003C02031D9D295F303B020318A2292000C7
:10034000C110B3292000C114B329063020003C029B
:10035000031DAC295A303B02031CB1292000C114F3
:10036000B3292000C110003020003F04031DCE2916
:100370002000BB012000C11CBF292000BB0A2000B7
:100380003B08BC003C0C0318C72920004111031C8A
:10039000CB292000411530302000BF002000C111C2
:1003A0002000BB012000C11CD7292000BB0A20006F
:1003B000BC012000411DDE292000BC0A20003C08B1
:1003C000BD003B060319F829BB012000C11CEA2926
:1003D0002000BB0A20003B08BC003C0C0318F2299B
:1003E00020004111031CF629200041152000C115F1
:1003F0002000C11D0F2A2000C20A0C302000C300BB
:1004000020003F08323A0319092A3F08333A031DF6
:100410000F2A31302000BF0063302000C2000030BE
:10042000200042040319422A20004308031D422AE7
:1004300020004208013A031D242A20003F08313AD7
:10044000031D242A3230BF0020004208023A031D57
:10045000302A20003F08313A031D302A3330BF00D4
:1004600020004208053A031D402A20003F08313A87
:10047000031D3D2A3030BF00402A31302000BF002C
:100480002000C2010800FF3020009B003F309C008C
:1004900008002000911C512A911020004308031DE0
:1004A000C30308000130FE000330FF0080308231BA
:1004B000E42282312000B0007F08AF000330B10099
:1004C0000330B20020002F08B3003008B400FF3022
:1004D000AF07031CB003330834040319CF2A0430D8
:1004E0003107B300B401B40D3208B4073308FE007D
:1004F0003408FF0080308231E42282312000B600CF
:100500007F08B5003108FE003208FF0080308231DC
:10051000E42282312000B800B4007F08B700B300A5
:1005200002303107B300B401B40D3208B407330808
:10053000FE003408FF0080308231E4228231200046
:10054000B400BA007F08B300B90020003508B90034
:100550003608BA00FF30B507031CB60339083A0461
:100560000319C92A3708FE003808FF00803082319D
:10057000D22282312000B90033088400340885007B
:1005800039088000B70A0319B80AB30A0319B40A74
:10059000A52A06302000B1070318B20A622A80316A
:1005A0002F280800003A0319D92A803A0319DF2AB4
:1005B00000347E0884007F088500000808007F085A
:1005C0008A007E0882000800003A0319EC2A803A6B
:1005D0000319F42AFF0100347E0884007F08850097
:1005E0001200FF00000808008231DF22FD00FE0F2C
:1005F000FF03FF0A8231DF22FC007D08FF007C0838
:10060000080006340034033400343F34003401342D
:1006100000349434033440340034013400349534CD
:10062000033441340034013400349634033442340A
:10063000003401340034973403344334003401343B
:100640000034983403344434003401340034073423
:10065000133408341334093413340A3413340B3488
:1006600013340734133408341334093413340A347C
:1006700013340B3413340C3413340D3413340E345C
:100680002734FF340E3413340D3413340C34133444
:100690000B3413340A3413340E3413340D3413343E
:1006A0000C3413340B3413340A3413340934133434
:1006B0000834133407343A34FF34073413340F3416
:1006C00009340A3413340F3409340C3413340F341E
:1006D00009340E3427340F3409340C3413340F34F6
:1006E00009340E343A34FF340E340D340B340B34E9
:1006F0000934083407340734063405340534043427
:100700000434033403340F34EE344D34D9342F34ED
:10071000F734E034E8347734A634EC349734FB34DF
:100720007034F434BB34FF3400340034003400340B
:02073000003493
:020000040001F9
:02000E0084C9A3
:02001000FFDC13
:00000001FF
