:020000040000FA
:10000000000082316F2A00348A0120001111200083
:100010002A080F3A031928282000AE0A03302E05BB
:100020002000A800013A031D1928053022008C0089
:100030002A28033020002E052000A800033A031DC3
:100040002528123022008C002A2822008C012A2820
:1000500022008C0120002C082000AF072000031C88
:100060003E282000AB032B08031D3E2822008C01F4
:1000700021001111200018102000AD0109007A3074
:100080002100990020008C0122008C0123008C01AA
:10009000E83021008C00803022009D0020302000BC
:1000A00098000B302500930020000B178B1782312E
:1000B000602280312000AF01033020002F0203189E
:1000C00067288131642180312000AF0A5C2800302C
:1000D000AF2081316421803120004108200040069A
:1000E0000319AD2880304002031CA7288430400249
:1000F0000318A728803040072000A90080308A001C
:100100008530290703188A0A8200892892289F28A7
:10011000A32822008C01200041080319A9280230DD
:10012000AF20A92820004108803A031D99280130FA
:10013000AF200330AF20143022008C00A9280530F6
:1001400022008C00A928123022008C00A92822004D
:100150008C01200040082000C10069280800200010
:10016000A0008330A2007A30A1008030A3002008D4
:10017000013A031DC1288330A2004430A100803021
:10018000A30020002008023A031DCC288330A200DF
:100190005F30A1008030A30020002008033A031D37
:1001A000D7288330A200B130A1008030A300200006
:1001B0002108FE002208FF0023088231EF2280314F
:1001C0002000A000FF3A0319632920082000AA009C
:1001D0002000A10A0319A20A0319A30A2108FE009C
:1001E0002208FF0023088231EF2280312000AB007B
:1001F0002000A10A0319A20A0319A30A20002A0851
:10020000913E2000A00083300318013EA400200886
:10021000FE002408FF0080308231EF22813125006A
:10022000920020002A08A13E2000A000833003187D
:10023000013EA4002008FE002408FF008030823127
:10024000EF2281312500910020002A08913E2000F4
:10025000A00083300318013EA4002008FE002408FB
:10026000FF0080308231EF2281312000A500250E71
:10027000F039A00020002A08A13E2000A50083300C
:100280000318013EA6002508FE002608FF00803066
:100290008231EF2281312000A700270E0F39A500FF
:1002A00020072000AC0001302000AD000B302500FD
:1002B00093002100111520001814003020002D0497
:1002C0000319D7285D290800003020004004031DD1
:1002D00073295A302000C400003020004404031960
:1002E000732966226C296622200097019601250059
:1002F000930120008C1A79292000BC0120008C1E5B
:1003000083292000BC0A20003C08BD00013A031DDF
:100310007C292000181420008C1A8B29181017082B
:100320002000BF00BC00BD01BE0120001608200057
:10033000BC00BD010030BC043F08BD0402303D02DA
:10034000031DA42958303C02031CAF2909302000AA
:100350003D02031DAD29C5303C02031CB0295F2AB4
:100360002000421DC229053020003D02031DBA298C
:100370005F303C020318BF292000C210D0292000A2
:10038000C214D029063020003D02031DC9295A306D
:100390003C02031CCE292000C214D0292000C21028
:1003A000003020004004031DEB292000BC01200088
:1003B000C21CDC292000BC0A20003C08BD003D0C0A
:1003C0000318E42920004211031CE82920004215EB
:1003D00080302000C0002000C2112000BC0120009D
:1003E000C21CF4292000BC0A2000BD012000421DCF
:1003F000FB292000BD0A20003D08BE003C06031971
:10040000152ABC012000C21C072A2000BC0A2000BB
:100410003C08BD003D0C03180F2A20004211031CAC
:10042000132A200042152000C2152000C21D2C2ACC
:100430002000C30A0C302000C40020004008823A8B
:100440000319262A4008833A031D2C2A81302000F4
:10045000C00063302000C3000030200043040319B3
:100460005F2A20004408031D5F2A20004308013A48
:10047000031D412A20004008813A031D412A823091
:10048000C00020004308023A031D4D2A2000400806
:10049000813A031D4D2A8330C00020004308053AED
:1004A000031D5D2A20004008813A031D5A2A80302E
:1004B000C0005D2A81302000C0002000C301080078
:1004C000FF3020009B003F309C0008002000911C62
:1004D0006E2A911020004408031DC40308001E303A
:1004E000FE008330FF008030833101238231200001
:1004F000B1007F08B0002030B2008330B30020008C
:100500003008B4003108B500FF30B007031CB10358
:10051000340835040319EC2A04303207B400B5015D
:10052000B50D3308B5073408FE003508FF008030EC
:100530008331012382312000B7007F08B6003208E2
:10054000FE003308FF008030833101238231200018
:10055000B900B5007F08B800B40002303207B4001B
:10056000B501B50D3308B5073408FE003508FF00A6
:1005700080308331012382312000B500BB007F0829
:10058000B400BA0020003608BA003708BB00FF30BC
:10059000B607031CB7033A083B040319E62A3808D8
:1005A000FE003908FF0080308231EF2282312000C6
:1005B000BA0034088400350885003A088000B80A7B
:1005C0000319B90AB40A0319B50AC22A0630200071
:1005D000B2070318B30A7F2A80313F280800003A87
:1005E0000319F62A803A0319FC2A00347E08840095
:1005F0007F088500000808007F088A007E088200C6
:100600000800003A0319092B803A0319112BFF0146
:1006100000347E0884007F0885001200FF00000877
:1006200008008231FC22FD00FE0FFF03FF0A823129
:10063000FC22FC007D08FF007C0808000634003422
:10064000033400344034003401340034B43403340F
:100650004134003401340034B534033442340034BE
:1006600001340034B63403344334003401340034EC
:10067000B73403344434003401340034B834033420
:10068000453400340134003407341334083413344F
:10069000093413340A3413340B3413340734133449
:1006A00008341334093413340A3413340B34133438
:1006B0000C3413340D3413340E342734FF340E3419
:1006C00013340D3413340C3413340B3413340A3410
:1006D00013340E3413340D3413340C3413340B34FC
:1006E00013340A34133409341334083413340734FC
:1006F0003A34FF34073413340F3409340A341334D2
:100700000F3409340C3413340F3409340E342734C5
:100710000F3409340C3413340F3409340E343A34A2
:10072000FF340E340D340B340B34093408340734E1
:1007300007340634053405340434043403340334F4
:100740000F34EE344D34D9342F34F734E034E834F8
:100750007734A634EC349734FB347034F434BB343F
:10076000FF340F340C34FF340034003400340034D0
:02077000003453
:020000040001F9
:02000E00840963
:02001000FF1CD3
:00000001FF
